:100800001208447F80120868758920758DFD7598DF
:1008100050D28E3098FD0509859908C298AF08120C
:04082000085880E410
:10082400E4FDFCC3ED9FEC9E5015E4FBFA0BBB000A
:0F083400010ABA03F8BBE9F50DBD00010C80E421
:010843002292
:100844007F381208687F0E1208687F061208687FD6
:04085400010208682D
:10085800D2A0C2A18F901208847F057E00020824CE
:10086800C2A0C2A18F901208847F057E00020824CE
:07088400C2A2D2A2C2A2220F
:030000000208787B
:0C087800787FE4F6D8FD75810A020800C4
:00000001FF
