:100A4C000E0C4449474954414C20434C4F434B00F6
:040A5C00020A3A0050
:10080000120A91120A85D2AFD2AC20A3030208DAF1
:10081000120A617F82120A75E4F520F521740C2515
:1008200021F8E6FF120A3C0521E52170020520C3EC
:10083000940DE520940040E5E4F51AF51BC3E51B93
:10084000943CE51A940050CB20A4C87FC3120A75CB
:10085000AF1BAE1A120A16120A35E5082430FF1231
:100860000A3CAF0A120A3CE4F51CF51D20A45D7F8A
:10087000C6120A75AF1DAE1C120A16120A35E5081B
:100880002430FF120A3CAF0A120A3CE4F51EF51FA1
:1008900020A4287FC9120A75AF1FAE1E120A1612B5
:1008A0000A35E5082430FF120A3C051FE51F7002D7
:1008B000051EC3943CE51E940040D5051DE51D7042
:1008C00002051CC3943CE51C940040A0051BE51BDD
:0B08D000600302083D051A02083D22EB
:1009F600E4FDFCC3ED9FEC9E5015E4FBFA0BBB0037
:0F0A0600010ABA04F8BBFCF50DBD00010C80E439
:010A150022BE
:100A61007F38120A757F0E120A757F06120A757F8A
:040A710001020A75FF
:070A35008F08E5092430FFE2
:100A3C00D2A0C2A18F90120AA47F057E000209F6F3
:100A7500C2A0C2A18F90120AA47F057E000209F6CA
:070AA400C2A2D2A2C2A222ED
:100A1600AB07AA067C007D0A1209678D08AE02AFF5
:0F0A2600037C007D0A1209678F09AF087E00224A
:0B0A9100E4F580F590F5A075B003229D
:0C0A8500758920759850758DFDD28E2269
:080A9C008F993099FDC29922E7
:030023000209BC13
:0B09BC00C0E0C0D075D000C006C0072E
:1009C700309804AE99C2986380FFEE24BB600C2474
:1009D700F27011D2A3C2A47F538006D2A4C2A37F10
:0609E70045120A9CC298B3
:0909ED00D007D006D0D0D0E032D2
:030000000208DB18
:0C08DB00787FE4F6D8FD75812102092227
:10096700BC000BBE0029EF8DF084FFADF022E4CC74
:10097700F875F008EF2FFFEE33FEEC33FCEE9DEC3D
:10098700984005FCEE9DFE0FD5F0E9E4CEFD22ED83
:10099700F8F5F0EE8420D21CFEADF075F008EF2FCD
:1009A700FFED33FD4007985006D5F0F222C398FDBE
:0509B7000FD5F0EA225B
:1008E700020800E493A3F8E493A34003F68001F21F
:1008F70008DFF48029E493A3F85407240CC8C33312
:10090700C4540F4420C8834004F456800146F6DFE0
:10091700E4800B0102040810204080900A4CE47E1A
:10092700019360BCA3FF543F30E509541FFEE493D5
:10093700A360010ECF54C025E060A840B8E493A39C
:10094700FAE493A3F8E493A3C8C582C8CAC583CAC7
:10095700F0A3C8C582C8CAC583CADFE9DEE780BE7F
:010A60000095
:00000001FF
