:0C09A4000A10C0F9A4B0999282F8809863
:10088C00E4F590F5A0E4F50EF50FAE0EAF0F7C007D
:10089C007D0A1209158C088D09AE0EAF0F7C007DF8
:1008AC00641209157E007F0ACFCDCFCECCCE1209B3
:1008BC00158E0A8F0BAE0EAF0F7C037DE812091557
:1008CC007E007F64CFCDCFCECCCE1209158E0C8F8F
:1008DC000DD2A07410250912098A1209B1D2A17483
:1008EC0010250B12098A1209B1D2A27410250D120F
:1008FC00098A1209B1050FE50F7002050EC394E8C1
:09090C00E50E94034084020891F9
:08098A00F8E6F5907FD07E072E
:10099200E4FDFCD3ED9FEC9E50070DBD00010C80E1
:0109A200F262
:0109A3002231
:0709B100C2A0C2A1C2A222F4
:10096A00E4FDFCD3ED9FEC9E5015E4FBFA0BBB00B3
:0F097A00010ABA03F8BBE8F50DBD00010C80E4DB
:01098900224B
:03000000020800F3
:0C080000787FE4F6D8FD758119020847E6
:10091500BC000BBE0029EF8DF084FFADF022E4CCC6
:10092500F875F008EF2FFFEE33FEEC33FCEE9DEC8F
:10093500984005FCEE9DFE0FD5F0E9E4CEFD22EDD5
:10094500F8F5F0EE8420D21CFEADF075F008EF2F1F
:10095500FFED33FD4007985006D5F0F222C398FD10
:050965000FD5F0EA22AD
:10080C0002088CE493A3F8E493A34003F68001F26E
:10081C0008DFF48029E493A3F85407240CC8C333ED
:10082C00C4540F4420C8834004F456800146F6DFBC
:10083C00E4800B01020408102040809009A4E47E9F
:10084C00019360BCA3FF543F30E509541FFEE493B1
:10085C00A360010ECF54C025E060A840B8E493A378
:10086C00FAE493A3F8E493A3C8C582C8CAC583CAA3
:10087C00F0A3C8C582C8CAC583CADFE9DEE780BE5B
:0109B0000046
:00000001FF
