:100A5A000D18456D626564646564204C6162000C22
:100A6A000C68656C6C6F20776F726C64000E25449D
:100A7A0049474954414C20434C4F434B0002083AE2
:010A8A00006B
:10080000120AE230B2FA30B02730B1247F82120AE5
:10081000F6E4F533D3E533940C7480948050E4749B
:10082000182533F8E6FF120AD230B2D4053380E43B
:1008300020B02A30B127120AE27F82120AF6E4F5CC
:1008400033D3E53394047480948050B7740C25330B
:10085000F8E6FF120AD230B2A7053380E420B12DAA
:1008600030B02A120AE27F82120AF6753305D3E508
:1008700033940A74809480508A740C2533F8E6FF10
:10088000120AD220B203020800053380E17F8212EF
:100890000AF6E4F533D3E533940D74809480501454
:1008A00074252533F8E6FF120AD220B203020800AD
:1008B000053380E1E4F533C3E533943C74809480E0
:1008C00040030208037FC3120AF6AF337E00120A08
:1008D000AC120ACBE50A2430FF120AD2AF08120A82
:1008E000D2E4F534C3E534943C74809480504F7F57
:1008F000C6120AF6AF347E00120AAC120ACBE50A21
:100900002430FF120AD2AF08120AD2E4F535C3E54B
:1009100035943C7480948050217FC9120AF6AF351B
:100920007E00120AAC120ACBE50A2430FF120AD26A
:1009300020B203020800053580D4053480A60533B3
:030940000208B7F3
:100A8C00E4FDFCC3ED9FEC9E5015E4FBFA0BBB00A0
:0F0A9C00010ABA27F8BB10F50DBD00010C80E46C
:010AAB002228
:100AE2007F38120AF67F0E120AF67F06120AF67F86
:040AF20001020AF6FD
:070ACB008F0AE50B2430FF48
:100AD200D2A0C2A18F90120B067F057E00020A8C63
:100AF600C2A0C2A18F90120B067F057E00020A8C4F
:070B0600C2A2D2A2C2A2228A
:100AAC00AB07AA067C007D0A1209CF8F0BAE02AFF2
:0F0ABC00037C007D0A1209CF8D0AAF0A7E00224B
:03000000020943AF
:0C094300787FE4F6D8FD75813902098A3E
:1009CF00C2D5EC30E709B2D5E4C39DFDE49CFCEE43
:1009DF0030E715B2D5E4C39FFFE49EFE120A05C3AC
:1009EF00E49DFDE49CFC8003120A0530D507C3E4A7
:0609FF009FFFE49EFE22B2
:10094F00020800E493A3F8E493A34003F68001F2B6
:10095F0008DFF48029E493A3F85407240CC8C333A9
:10096F00C4540F4420C8834004F456800146F6DF78
:10097F00E4800B0102040810204080900A5AE47EA4
:10098F00019360BCA3FF543F30E509541FFEE4936D
:10099F00A360010ECF54C025E060A840B8E493A334
:1009AF00FAE493A3F8E493A3C8C582C8CAC583CA5F
:1009BF00F0A3C8C582C8CAC583CADFE9DEE780BE17
:010A8B00006A
:100A0500BC000BBE0029EF8DF084FFADF022E4CCD5
:100A1500F875F008EF2FFFEE33FEEC33FCEE9DEC9E
:100A2500984005FCEE9DFE0FD5F0E9E4CEFD22EDE4
:100A3500F8F5F0EE8420D21CFEADF075F008EF2F2E
:100A4500FFED33FD4007985006D5F0F222C398FD1F
:050A55000FD5F0EA22BC
:00000001FF
