:100A17000E0C4449474954414C20434C4F434B002B
:040A270002083A0087
:10080000120A2C7F82120A40E4F51AD3E51A940DDD
:1008100074809480500E740C251AF8E6FF120A07B3
:10082000051A80E7E4F51AC3E51A943C74809480B5
:1008300050D17FC3120A40AF1A7E001209E1120A9A
:1008400000E50A2430FF120A07AF08120A07E4F590
:100850001BC3E51B943C7480948050497FC6120AE8
:1008600040AF1B7E001209E1120A00E50A2430FFA6
:10087000120A07AF08120A07E4F51CC3E51C943CF2
:1008800074809480501B7FC9120A40AF1C7E0012F6
:1008900009E1120A00E50A2430FF120A07051C804C
:0A08A000DA051B80AC051A020827D8
:1009C100E4FDFCC3ED9FEC9E5015E4FBFA0BBB006C
:0F09D100010ABA27F8BB10F50DBD00010C80E438
:0109E00022F4
:100A2C007F38120A407F0E120A407F06120A407F5E
:040A3C0001020A4069
:070A00008F0AE50B2430FF13
:100A0700D2A0C2A18F90120A507F057E000209C1B1
:100A4000C2A0C2A18F90120A507F057E000209C188
:070A5000C2A2D2A2C2A22241
:1009E100AB07AA067C007D0A1209368F0BAE02AF57
:0F09F100037C007D0A1209368D0AAF0A7E0022B0
:030000000208AA49
:0C08AA00787FE4F6D8FD75811C0208F18F
:10093600C2D5EC30E709B2D5E4C39DFDE49CFCEEDC
:1009460030E715B2D5E4C39FFFE49EFE12096CC3DF
:10095600E49DFDE49CFC800312096C30D507C3E4DA
:060966009FFFE49EFE224B
:1008B600020800E493A3F8E493A34003F68001F250
:1008C60008DFF48029E493A3F85407240CC8C33343
:1008D600C4540F4420C8834004F456800146F6DF12
:1008E600E4800B0102040810204080900A17E47E81
:1008F600019360BCA3FF543F30E509541FFEE49307
:10090600A360010ECF54C025E060A840B8E493A3CD
:10091600FAE493A3F8E493A3C8C582C8CAC583CAF8
:10092600F0A3C8C582C8CAC583CADFE9DEE780BEB0
:010A2B0000CA
:10096C00BC000BBE0029EF8DF084FFADF022E4CC6F
:10097C00F875F008EF2FFFEE33FEEC33FCEE9DEC38
:10098C00984005FCEE9DFE0FD5F0E9E4CEFD22ED7E
:10099C00F8F5F0EE8420D21CFEADF075F008EF2FC8
:1009AC00FFED33FD4007985006D5F0F222C398FDB9
:0509BC000FD5F0EA2256
:00000001FF
