:1008000030B048750C01E4F508F509120859E50CFB
:1008100025E0F50C0509E50970020508C39408E513
:1008200008940040E6750C80E4F508F509C3E50975
:100830009408E508940050C8120859E50CC313F554
:100840000C0509E50970E6050880E2759055120867
:090850005C7590AA12085C80A7F7
:07085900850C907F647E0016
:10086000E4FDFCD3ED9FEC9E5015E4FBFA0BBB00BE
:0F087000010ABA03F8BBE9F50DBD00010C80E4E5
:01087F002256
:0300000002088073
:0C088000787FE4F6D8FD75810C020800BA
:00000001FF
