:0F0904000D0A456D626564646564204C61620094
:10088C001208D07F821208F4E4F517D3E517940C04
:10089C007480948050ED740A2517F8E6FF1208E472
:0408AC00051780E7C5
:1008B000E4FDFCC3ED9FEC9E5015E4FBFA0BBB007E
:0F08C000010ABA27F8BB10F50DBD00010C80E44A
:0108CF002206
:1008D0007F381208F47F0E1208F47F061208F47FA6
:0408E000010208F415
:1008E400D2A0C2A18F901209147F057E000208B025
:1008F400C2A0C2A18F901209147F057E000208B025
:07091400C2A2D2A2C2A2227E
:03000000020800F3
:0C080000787FE4F6D8FD758119020847E6
:10080C0002088CE493A3F8E493A34003F68001F26E
:10081C0008DFF48029E493A3F85407240CC8C333ED
:10082C00C4540F4420C8834004F456800146F6DFBC
:10083C00E4800B0102040810204080900904E47E3F
:10084C00019360BCA3FF543F30E509541FFEE493B1
:10085C00A360010ECF54C025E060A840B8E493A378
:10086C00FAE493A3F8E493A3C8C582C8CAC583CAA3
:10087C00F0A3C8C582C8CAC583CADFE9DEE780BE5B
:0109130000E3
:00000001FF
