:1009D60011164672657175656E6379436F756E742F
:1009E6006572000827467265717A203A00032F481F
:0609F6007A0002143A0031
:10080000E4F533758951D2B5E4F58DF58BD28E7F41
:1008100064FE1209FDC28E858B33E53375F00AA4A0
:10082000F53375F00A8485F008E53375F00A8475B0
:10083000F00A8485F009E53375F0648475F00A8464
:1008400085F00AE533FB7A007C037DE8FF7E001229
:1008500009817C007D0A1209818D0B7C277D10AFF8
:10086000037E001209818F0C120A177F80120A3C46
:10087000E4F532D3E532940F74809480500E7416F0
:100880002532F8E6FF120A2E053280E77FC0120AF1
:100890003CE4F532D3E532940674809480500E74B3
:1008A000272532F8E6FF120A2E053280E7E50C1202
:1008B0000A2BE50B120A2BE50A2430FF120A2EE55B
:1008C000092430FF120A2EE5082430FF120A2EE414
:1008D000F532D3E532940274809480500E742F2543
:1008E00032F8E6FF120A2E053280E77FB87E0B123F
:0508F00009FD020806ED
:1009FD00E4FEEEC39F5012758CFC758A66D28C3066
:090A0D008DFDC28DC28C0E80E942
:010A160022BD
:100A17007F38120A3C7F0E120A3C7F06120A3C7F7F
:040A270001020A3C82
:030A2B002430FF75
:0E0A2E00D290C2918FA0120A4A7F050209FDE4
:0E0A3C00C290C2918FA0120A4A7F050209FDE6
:070A4A00C292D292C2922277
:030000000208F5FE
:0C08F500787FE4F6D8FD75813302093CE1
:10098100BC000BBE0029EF8DF084FFADF022E4CC5A
:10099100F875F008EF2FFFEE33FEEC33FCEE9DEC23
:1009A100984005FCEE9DFE0FD5F0E9E4CEFD22ED69
:1009B100F8F5F0EE8420D21CFEADF075F008EF2FB3
:1009C100FFED33FD4007985006D5F0F222C398FDA4
:0509D1000FD5F0EA2241
:10090100020800E493A3F8E493A34003F68001F204
:1009110008DFF48029E493A3F85407240CC8C333F7
:10092100C4540F4420C8834004F456800146F6DFC6
:10093100E4800B01020408102040809009D6E47E77
:10094100019360BCA3FF543F30E509541FFEE493BB
:10095100A360010ECF54C025E060A840B8E493A382
:10096100FAE493A3F8E493A3C8C582C8CAC583CAAD
:10097100F0A3C8C582C8CAC583CADFE9DEE780BE65
:0109FC0000FA
:00000001FF
