:10087E00E4F50BC3E50B9464748094805010AF0BB9
:0F088E007E001208558F9012089D050B80E52201
:10085500AB07AA067C007D0A1208008D08AE02AF20
:10086500037C007D0A1208008F09E509C454F0F5E0
:09087500092508F50AFF7E0022A6
:10089D00E4FFEF64146015758901758AFD758C4B45
:0C08AD00D28C308DFDC28CC28D0F80E615
:0108B900221C
:030000000208BA39
:0C08BA00787FE4F6D8FD75810B02087E03
:10080000BC000BBE0029EF8DF084FFADF022E4CCDC
:10081000F875F008EF2FFFEE33FEEC33FCEE9DECA5
:10082000984005FCEE9DFE0FD5F0E9E4CEFD22EDEB
:10083000F8F5F0EE8420D21CFEADF075F008EF2F35
:10084000FFED33FD4007985006D5F0F222C398FD26
:050850000FD5F0EA22C3
:00000001FF
