:100A3B000E0D4449474954414C20434C4F434B0006
:040A4B0002093A0062
:03000B00020A7472
:0B0A7400758AFD758C4BB2B0D28D323C
:1009C400E4F508D3E5089414748094805012758972
:1009D40001758AFD758C4BD28C75A882050880E35D
:0109E40022F0
:10080000120A507F82120A64E4F51BD3E51B940D93
:1008100074809480500E740D251BF8E6FF120A2B8D
:10082000051B80E7E4F51BC3E51B943C74809480B2
:1008300050D17FC3120A64AF1B7E00120A05120A50
:1008400024E50B2430FF120A2BAF09120A2BE4F522
:100850001CC3E51C943C74809480504C7FC6120AE3
:1008600064AF1C7E00120A05120A24E50B2430FF37
:10087000120A2BAF09120A2BE4F51DC3E51D943CA7
:1008800074809480501E7FC9120A64AF1D7E0012CE
:100890000A05120A24E50B2430FF120A2B1209C4A0
:0D08A000051D80D7051C80A9051B02082737
:1009E500E4FDFCC3ED9FEC9E5015E4FBFA0BBB0048
:0F09F500010ABA03F8BBE8F50DBD00010C80E460
:010A040022CF
:100A50007F38120A647F0E120A647F06120A647FCE
:040A600001020A6421
:070A24008F0BE50C2430FFED
:100A2B00D2A0C2A18F90120A7F7F057E000209E53A
:100A6400C2A0C2A18F90120A7F7F057E000209E511
:070A7F00C2A2D2A2C2A22212
:100A0500AB07AA067C007D0A1209398F0CAE02AF2E
:0F0A1500037C007D0A1209398D0BAF0B7E002286
:030000000208AD46
:0C08AD00787FE4F6D8FD75811D0208F488
:10093900C2D5EC30E709B2D5E4C39DFDE49CFCEED9
:1009490030E715B2D5E4C39FFFE49EFE12096FC3D9
:10095900E49DFDE49CFC800312096F30D507C3E4D4
:060969009FFFE49EFE2248
:1008B900020800E493A3F8E493A34003F68001F24D
:1008C90008DFF48029E493A3F85407240CC8C33340
:1008D900C4540F4420C8834004F456800146F6DF0F
:1008E900E4800B0102040810204080900A3BE47E5A
:1008F900019360BCA3FF543F30E509541FFEE49304
:10090900A360010ECF54C025E060A840B8E493A3CA
:10091900FAE493A3F8E493A3C8C582C8CAC583CAF5
:10092900F0A3C8C582C8CAC583CADFE9DEE780BEAD
:010A4F0000A6
:10096F00BC000BBE0029EF8DF084FFADF022E4CC6C
:10097F00F875F008EF2FFFEE33FEEC33FCEE9DEC35
:10098F00984005FCEE9DFE0FD5F0E9E4CEFD22ED7B
:10099F00F8F5F0EE8420D21CFEADF075F008EF2FC5
:1009AF00FFED33FD4007985006D5F0F222C398FDB6
:0509BF000FD5F0EA2253
:00000001FF
