:1008D000170A202020416268696A656574204465B2
:0F08E00073686D756B6820202001090001080006
:0E090400758920758DFDD28E308FFDC28F2239
:1008F000759850D2AFD2AC120904740A2508F8E6F4
:04090000F59980FEE7
:0300230002088C44
:10088C00C0E0C0D075D000C000D3E50894167480C9
:10089C00948040037508FFE50964017011740A2502
:1008AC0008F8E6F5990508C299750900800F740AD5
:1008BC002508F8E6F5990508C299750901D000D00C
:0408CC00D0D0E03276
:03000000020800F3
:0C080000787FE4F6D8FD758120020847DF
:10080C000208F0E493A3F8E493A34003F68001F20A
:10081C0008DFF48029E493A3F85407240CC8C333ED
:10082C00C4540F4420C8834004F456800146F6DFBC
:10083C00E4800B01020408102040809008D0E47E74
:10084C00019360BCA3FF543F30E509541FFEE493B1
:10085C00A360010ECF54C025E060A840B8E493A378
:10086C00FAE493A3F8E493A3C8C582C8CAC583CAA3
:10087C00F0A3C8C582C8CAC583CADFE9DEE780BE5B
:0108EF000008
:00000001FF
