:1008000075A881750C01E4F508F50912087BE50C63
:1008100025E0F50C0509E50970020508C39408E513
:1008200008940040E6750C80E4F508F509C3E50975
:100830009408E508940050C812087BE50CC313F532
:0B0840000C0509E50970E6050880E2E0
:07087B00850C907F647E00F4
:10088200E4FDFCD3ED9FEC9E5015E4FBFA0BBB009C
:0F089200010ABA03F8BBE9F50DBD00010C80E4C3
:0108A1002234
:0300030002084BA5
:10084B00C0E0C0D075D000C002C003C004C005C05A
:10085B0006C00775905512087E7590AA120882D0B3
:10086B0007D006D005D004D003D002D0D0D0E032D0
:030000000208A251
:0C08A200787FE4F6D8FD75810C02080098
:00000001FF
