:100A5F000E1B4449474954414C20434C4F434B00D4
:100A6F000D0E436F756E742052657365742000020E
:030A7F000A3A0030
:03000B00020B1BCA
:0B0B1B00758AFD758C4BB2B0D28D3294
:030013000209DD02
:1009DD00C0E0C0F0C083C082C0D075D000C000C0E0
:1009ED0001C002C003C004C005C006C0077F0112CC
:1009FD000B0B7F82120B0B752A00D3E52A940D7415
:100A0D00809480500E741B252AF8E6FF120AE70524
:100A1D002A80E77FC2120B0B752A00D3E52A940CAE
:100A2D0074809480500E740E252AF8E6FF120AE7A2
:100A3D00052A80E7752901D007D006D005D004D04E
:100A4D0003D002D001D000D0D0D082D083D0F0D04E
:020A5D00E03285
:100AC200E4F509D3E509941474809480500F758974
:0E0AD20001758AFD758C4BD28C050980E622D9
:10080000D2AFD2A9D2AAD2BA120AF7E4F5297F014F
:10081000120B0B7F82120B0BE4F52AD3E52A940D01
:1008200074809480500E741B252AF8E6FF120AE7A4
:10083000052A80E7E4F52AC3E52A943C7480948075
:1008400050C97FC3120B0BAF2A7E00120AA3120AF3
:10085000E0E50C2430FF120AE7AF0A120AE7E4F5DC
:100860002BC3E52B943C7480948050557FC6120BAB
:100870000BAF2B7E00120AA3120AE0E50C2430FF16
:10088000120AE7AF0A120AE7E4F52CC3E52C943C00
:100890007480948050277FC9120B0BAF2C7E0012FE
:1008A0000AA3120AE0E50C2430FF120AE7120AC27A
:1008B000E5296401700302080B052C80CE052B800E
:0608C000A0052A02083722
:100A8300E4FDFCC3ED9FEC9E5015E4FBFA0BBB00A9
:0F0A9300010ABA03F8BBE8F50DBD00010C80E4C1
:010AA2002231
:100AF7007F38120B0B7F0E120B0B7F06120B0B7F2F
:040B070001020B0BD1
:070AE0008F0CE50D2430FF2F
:100AE700D2A0C2A18F90120B267F057E00020A8337
:100B0B00C2A0C2A18F90120B267F057E00020A8322
:070B2600C2A2D2A2C2A2226A
:100AA300AB07AA067C007D0A1209528F0DAE02AF76
:0F0AB300037C007D0A1209528D0CAF0C7E0022CD
:030000000208C62D
:0C08C600787FE4F6D8FD75812C02090D46
:10095200C2D5EC30E709B2D5E4C39DFDE49CFCEEC0
:1009620030E715B2D5E4C39FFFE49EFE120988C3A7
:10097200E49DFDE49CFC800312098830D507C3E4A2
:060982009FFFE49EFE222F
:1008D200020800E493A3F8E493A34003F68001F234
:1008E20008DFF48029E493A3F85407240CC8C33327
:1008F200C4540F4420C8834004F456800146F6DFF6
:10090200E4800B0102040810204080900A5FE47E1C
:10091200019360BCA3FF543F30E509541FFEE493EA
:10092200A360010ECF54C025E060A840B8E493A3B1
:10093200FAE493A3F8E493A3C8C582C8CAC583CADC
:10094200F0A3C8C582C8CAC583CADFE9DEE780BE94
:010A82000073
:10098800BC000BBE0029EF8DF084FFADF022E4CC53
:10099800F875F008EF2FFFEE33FEEC33FCEE9DEC1C
:1009A800984005FCEE9DFE0FD5F0E9E4CEFD22ED62
:1009B800F8F5F0EE8420D21CFEADF075F008EF2FAC
:1009C800FFED33FD4007985006D5F0F222C398FD9D
:0509D8000FD5F0EA223A
:00000001FF
