:0C095C000A0EC0F9A4B0999282F88098AD
:1008E100E4F590F5A0E4F50CF50DAE0CAF0D7C0030
:1008F1007D0A12088C8E0A8F0BAE0CAF0D7C007D29
:100901000A12088C8C088D09D2A0740E25091209CF
:1009110034120969D2A1740E250B12093412096926
:10092100050DE50D7002050CD39464E50C940040AF
:03093100B980B2D8
:08093400F8E6F5907FF47E0166
:10093C00E4FDFCD3ED9FEC9E5015E4FBFA0BBB00E1
:0F094C00010AEB640A4A70F50DBD00010C80E44E
:01095B002279
:05096900C2A0C2A122A2
:03000000020800F3
:0C080000787FE4F6D8FD758117020847E8
:10088C00BC000BBE0029EF8DF084FFADF022E4CC50
:10089C00F875F008EF2FFFEE33FEEC33FCEE9DEC19
:1008AC00984005FCEE9DFE0FD5F0E9E4CEFD22ED5F
:1008BC00F8F5F0EE8420D21CFEADF075F008EF2FA9
:1008CC00FFED33FD4007985006D5F0F222C398FD9A
:0508DC000FD5F0EA2237
:10080C000208E1E493A3F8E493A34003F68001F219
:10081C0008DFF48029E493A3F85407240CC8C333ED
:10082C00C4540F4420C8834004F456800146F6DFBC
:10083C00E4800B010204081020408090095CE47EE7
:10084C00019360BCA3FF543F30E509541FFEE493B1
:10085C00A360010ECF54C025E060A840B8E493A378
:10086C00FAE493A3F8E493A3C8C582C8CAC583CAA3
:10087C00F0A3C8C582C8CAC583CADFE9DEE780BE5B
:01096800008E
:00000001FF
